:020000040000FA
:100000000C94FD000C9425010C9425010C94250101
:100010000C9425010C9425010C9425010C942501C8
:100020000C9425010C9425010C9425010C942501B8
:100030000C9425010C9425010C9425010C942501A8
:100040000C9439280C9425010C94AF060C94DB0613
:100050000C9425010C9425010C9425010C94250188
:100060000C9425010C9425014E414E494E4954599A
:10007000494E46CDCCCC3D0AD7233C17B7D1387773
:10008000CC2B329595E6241FB14F0A000020410089
:1000900000C84200401C4620BCBE4CCA1B0E5AAED3
:1000A000C59D7400407A10F35A00A0724E180900E2
:1000B00010A5D4E80000E87648170000E40B5402CD
:1000C0000000CA9A3B000000E1F505000080969808
:1000D00000000040420F000000A086010000001058
:1000E0002700000000E8030000000064000000009A
:1000F000000A00000000000100000000002C76D87B
:1001000088DC674F0823DFC1DFAE59E1B1B796E560
:10011000E3E453C63AE651997696E8E6C28426EBC4
:10012000898C9B62ED407C6FFCEFBC9C9F40F2BAD7
:10013000A56FA5F490055A2AF75C936B6CF9676D6F
:10014000C11BFCE0E40D47FEF520E6B500D0ED90C4
:100150002E0300943577050080841E080000204E91
:100160000A000000C80C333333330F986E1283112A
:1001700041EF8D2114893BE65516CFFEE6DB18D101
:10018000844B381BF77C1D901DA4BBE424203284D3
:10019000725E228100C9F124ECA1E53D2700000038
:1001A00000240027002A0000000000250028002B62
:1001B00000000000002300260029000404040404B9
:1001C0000404040202020202020303030303030104
:1001D00002040810204080010204081020010204DB
:1001E00008102000000008000201000003040700BE
:1001F0000000000000000000520711241FBECFEFD6
:10020000D8E0DEBFCDBF22E0AAE2B2E001C01D927D
:10021000A03EB207E1F712E0A0E0B1E0E6E9FCE6BB
:1002200002C005900D92AA32B107D9F710E0CDEFC8
:10023000D0E004C02197FE010E94C433CC3FD10717
:10024000C9F70E942A280C9449360C940000CF93D9
:10025000DF9300D000D000D0CDB7DEB79A8389837A
:100260004B835C836D837E838B819C81AD81BE815A
:10027000E981FA8126E0AC01BD01CF010E94800234
:1002800026960FB6F894DEBF0FBECDBFDF91CF919B
:100290000895CF93DF93CDB7DEB766EA71E083E3CD
:1002A00092E00E94950A0E945801DF91CF91089533
:1002B000CF93DF9300D0CDB7DEB761E08DE00E9431
:1002C0004C2A1A82198289819A810A97D4F461E0B2
:1002D0008DE00E94722B64EF71E080E090E00E945C
:1002E000342960E08DE00E94722B64EF71E080E0C1
:1002F00090E00E94342989819A8101969A838983AA
:10030000E2CF6AEC71E083E392E00E94950A0F90DD
:100310000F90DF91CF910895CF93DF93CDB7DEB7E4
:1003200040E855E260E070E083E392E00E9427013C
:1003300061EE71E083E392E00E94950A6DEF71E057
:1003400083E392E00E94950ADF91CF910895CF93C5
:10035000DF93CDB7DEB7A2970FB6F894DEBF0FBE1E
:10036000CDBF83E392E00E949D0321E01816190699
:100370000CF020E0222309F1CE01039620E430E0C6
:10038000AC016AE083E392E00E94241289E491E0E8
:100390009A838983CE010396BC018AE292E00E948F
:1003A000F73589819A81FC01099548E050E060E0C9
:1003B00070E08AE292E00E94DC35A2960FB6F894D3
:1003C000DEBF0FBECDBFDF91CF910895CF93DF93F6
:1003D000CDB7DEB7F89481E0DF91CF910895CF9348
:1003E000DF9300D0CDB7DEB79A8389838FE590E0A5
:1003F00029813A81F9012081FC0120830F900F901F
:10040000DF91CF910895CF93DF93CDB7DEB780E032
:1004100090E0892B31F00E940707882311F081E0DA
:1004200001C080E0882311F00E940000DF91CF918D
:100430000895CF93DF9300D01F92CDB7DEB79B8393
:100440008A838A819B81FC01848D882F90E02A8198
:100450003B81820F931F835A9F4FFC0180818983C8
:100460008A819B81FC01848D882F90E001968F7397
:100470009078992324F40197806C9F6F0196282F20
:100480008A819B81FC01248F8A819B81FC01868962
:1004900097892981FC0120838A819B81FC018089C5
:1004A0009189FC0180818370282F20648A819B813F
:1004B000FC0180899189FC0120838A819B81FC0158
:1004C000238D8A819B81FC01948D81E0291709F09D
:1004D00080E0882379F08A819B81FC01828993895D
:1004E000FC0120818A819B81FC01828993892F7D77
:1004F000FC0120830F900F900F90DF91CF91089512
:10050000CF93DF93CDB7DEB729970FB6F894DEBF50
:100510000FBECDBF9C838B834D835E836F837887B3
:10052000298780E099E0ADE3B0E02D813E814F81E5
:100530005885BC01CD010E94A233DA01C90101979F
:10054000A109B109B695A795979587959A8389834F
:100550008B819C81FC018089918922E0FC012083B0
:100560008D819E81AF81B8858115914EA105B10520
:1005700029F089819A8181159041F0F08B819C81CD
:10058000FC0180899189FC01108280E894E8AEE149
:10059000B0E02D813E814F815885BC01CD010E9484
:1005A000A233DA01C9010197A109B109B695A7954E
:1005B000979587959A83898389819A81292F3327F3
:1005C0008B819C81FC0184859585FC0120838B8136
:1005D0009C81FC01868597852981FC0120838B8184
:1005E0009C81FC01108E8B819C81FC018489958902
:1005F0002985FC0120838B819C81FC018289938960
:10060000FC0120818B819C81FC018289938920617E
:10061000FC0120838B819C81FC0182899389FC01F0
:1006200020818B819C81FC01828993892860FC0157
:1006300020838B819C81FC0182899389FC0120812C
:100640008B819C81FC01828993892068FC01208335
:100650008B819C81FC0182899389FC0120818B81A3
:100660009C81FC01828993892F7DFC01208329963E
:100670000FB6F894DEBF0FBECDBFDF91CF910895C6
:10068000CF93DF9300D0CDB7DEB79A83898389817A
:100690009A81FC01808191810696FC012081318143
:1006A00089819A81F901099589819A81FC01828960
:1006B0009389FC01208189819A81FC018289938937
:1006C0002F7EFC01208389819A81FC018289938994
:1006D000FC01208189819A81FC0182899389277F8D
:1006E000FC01208389819A81FC0182899389FC0124
:1006F000208189819A81FC01828993892F77FC016D
:10070000208389819A81FC0182899389FC0120815F
:1007100089819A81FC01828993892F7DFC01208344
:1007200089819A81FC01228D89819A81FC01218F26
:100730000F900F90DF91CF910895CF93DF9300D06A
:10074000CDB7DEB79A83898389819A81FC01818D37
:10075000882F90E09C01205C3F4F89819A81FC01A9
:10076000828D882F90E0A901481B590BCA018F7315
:1007700099270F900F90DF91CF910895CF93DF933A
:1007800000D0CDB7DEB79A83898389819A81FC0135
:10079000218D89819A81FC01928D81E0291709F0D0
:1007A00080E0882319F08FEF9FEF0FC089819A8135
:1007B000FC01828D882F90E029813A81820F931F5E
:1007C0004D96FC018081882F90E00F900F90DF9173
:1007D000CF910895CF93DF9300D01F92CDB7DEB7AE
:1007E0009B838A838A819B81FC01218D8A819B81E5
:1007F000FC01928D81E0291709F080E0882319F02F
:100800008FEF9FEF1CC08A819B81FC01828D882F16
:1008100090E02A813B81820F931F4D96FC018081DD
:1008200089838A819B81FC01828D8F5F282F2F73A2
:100830008A819B81FC01228F8981882F90E00F9013
:100840000F900F90DF91CF910895CF93DF9300D059
:1008500000D0CDB7DEB79C838B838B819C81FC015C
:10086000838D89838B819C81FC01848D8A8399810E
:100870008A81981768F08981882F90E02FE330E013
:10088000281B390B8A81882F90E0820F931F0BC0A1
:100890008A81282F30E08981882F90E0A901481BA8
:1008A000590BCA0101970F900F900F900F90DF9195
:1008B000CF910895CF93DF9300D0CDB7DEB79A8361
:1008C000898389819A81FC01908D81E08927882321
:1008D00009F04EC089819A81FC0182899389FC01CB
:1008E0008081882F90E080729927892B69F4898113
:1008F0009A81FC0180899189FC018081882F90E098
:1009000080749927892B11F481E001C080E088234D
:1009100079F18FE590E0FC01808188237CF089816A
:100920009A81FC0182899389FC018081882F90E063
:1009300080729927892B11F081E001C080E0882323
:1009400049F289819A81FC0180899189FC01808129
:10095000882F90E08072992721E0892B09F420E00C
:10096000222309F4B7CF89819A810E941902B2CF5C
:100970000F900F90DF91CF910895CF93DF93CDB774
:10098000DEB728970FB6F894DEBF0FBECDBF9F83AA
:100990008E8368878E819F8121E0FC01208F8E816C
:1009A0009F81FC01238D8E819F81FC01848D2817FE
:1009B00079F48E819F81FC0180899189FC0180817D
:1009C000882F90E080729927892B11F081E001C077
:1009D00080E0882369F18FE590E0FC0180818D83C0
:1009E0000E94E601898389818823D9F08E819F81C5
:1009F000FC01868997892885FC0120838E819F814F
:100A0000FC0180899189FC0180818370282F2064FA
:100A10008E819F81FC0180899189FC01208319824C
:100A2000E2CFCE0105960E94EF0181E090E071C017
:100A30008E819F81FC01838D882F90E001968F73BA
:100A40009078992324F40197806C9F6F01968B8393
:100A50008E819F81FC01948D81E02B81291709F003
:100A600080E0882301F18FE590E0FC018081809592
:100A7000881F8827881F882359F38E819F81FC0156
:100A800080899189FC018081882F90E0807299276C
:100A900021E0892B09F420E02223D1F28E819F816D
:100AA0000E941902D5CF8E819F81FC01838D882FF2
:100AB00090E02E813F81820F931F835A9F4F28859C
:100AC000FC0120838FE590E0FC0180818C830E94F3
:100AD000E6018A838A818823B1F08E819F812B81F0
:100AE000FC01238F8E819F81FC0182899389FC0107
:100AF00020818E819F81FC01828993892062FC0183
:100B000020831A82E7CFCE0104960E94EF0181E094
:100B100090E028960FB6F894DEBF0FBECDBFDF91F0
:100B2000CF910895CF93DF9300D0CDB7DEB79A83EE
:100B3000898326E631E089819A81FC013183208313
:100B400089819A81FC01138212820F900F90DF91AC
:100B5000CF910895CF93DF9300D0CDB7DEB79A83BE
:100B6000898380E090E00F900F90DF91CF910895FE
:100B7000CF93DF9300D0CDB7DEB79A8389830F90F0
:100B80000F90DF91CF910895CF93DF9300D0CDB731
:100B9000DEB79A83898389819A810E94920526E42F
:100BA00031E089819A81FC013183208329813A8156
:100BB00088EE93E0A0E0B0E0F90184839583A683FA
:100BC000B7830F900F90DF91CF910895CF92DF926E
:100BD000EF92FF920F931F93CF93DF93CDB7DEB7C2
:100BE0002E970FB6F894DEBF0FBECDBF9A838983D0
:100BF0007C836B835E834D8338872F831A870987B5
:100C0000FC86EB86DE86CD8689819A810E94C405AA
:100C100026E231E089819A81FC0131832083898138
:100C20009A812B813C81FC013587248789819A81B7
:100C30002D813E81FC013787268789819A812F810A
:100C40003885FC01318B208B89819A8129853A85F1
:100C5000FC01338B228B89819A812B853C85FC0199
:100C6000358B248B89819A812D853E85FC01378BBC
:100C7000268B89819A81FC01118E89819A81FC01E0
:100C8000128E89819A81FC01138E89819A81FC01DF
:100C9000148E2E960FB6F894DEBF0FBECDBFDF9137
:100CA000CF911F910F91FF90EF90DF90CF9008951B
:100CB000CF93DF9300D000D0CDB7DEB79C838B837A
:100CC0008B819C81FC0180899189FC018081882F26
:100CD00090E08470992721E0892B09F020E02223FD
:100CE00071F18B819C81FC0186899789FC0180814F
:100CF00089838B819C81FC01818D8F5F8F738A83B7
:100D00008B819C81FC01928D81E02A81291709F455
:100D100080E08823E1F08B819C81FC01818D882F0C
:100D200090E02B813C81820F931F4D962981FC011D
:100D300020838B819C812A81FC01218F09C08B81BA
:100D40009C81FC0186899789FC01808101C000009B
:100D50000F900F900F900F90DF91CF9108951F92F9
:100D60000F920FB60F9211242F933F934F935F93DF
:100D70006F937F938F939F93AF93BF93EF93FF9363
:100D8000CF93DF93CDB7DEB783E392E00E9458069E
:100D9000DF91CF91FF91EF91BF91AF919F918F9193
:100DA0007F916F915F914F913F912F910F900FBE67
:100DB0000F901F9018951F920F920FB60F9211244B
:100DC0002F933F934F935F936F937F938F939F9353
:100DD000AF93BF93EF93FF93CF93DF93CDB7DEB77E
:100DE00083E392E00E941902DF91CF91FF91EF918E
:100DF000BF91AF919F918F917F916F915F914F9133
:100E00003F912F910F900FBE0F901F901895CF9389
:100E1000DF93CDB7DEB783E392E00E949D0321E02C
:100E2000892B09F420E0822FDF91CF910895CF9292
:100E3000DF92EF92FF920F931F93CF93DF9300D037
:100E400000D0CDB7DEB79A8389837C836B83898199
:100E50009A810197D1F48B819C810196B1F40F2E78
:100E6000F6ECCF2ED12CF02D0F2EF2ECEF2EF12C34
:100E7000F02D01EC10E020EC30E044EC50E065ECAB
:100E800070E083E392E00E94E6050F900F900F90D0
:100E90000F90DF91CF911F910F91FF90EF90DF9016
:100EA000CF900895CF93DF93CDB7DEB76FEF7FEF8D
:100EB00081E090E00E941707DF91CF910895CF93D2
:100EC000DF9300D0CDB7DEB79A83898389819A8179
:100ED000FC01848195810F900F90DF91CF9108954F
:100EE000CF93DF9300D0CDB7DEB79A838983898112
:100EF0009A81FC01808191810F900F90DF91CF91B9
:100F000008950F931F93CF93DF9300D000D0CDB7F8
:100F1000DEB79A8389837C836B838B819C81892B49
:100F200019F480E090E015C089819A81FC018081EC
:100F300091810296FC01008111818B819C810E942C
:100F4000FE35AC012B813C8189819A81B901F80180
:100F500009950F900F900F900F90DF91CF911F91F7
:100F60000F910895CF93DF9300D000D000D0CDB77C
:100F7000DEB79A8389837C836B835E834D8389810B
:100F80009A81FC01808191810296FC01208131814E
:100F90004D815E816B817C8189819A81F9010995FE
:100FA00026960FB6F894DEBF0FBECDBFDF91CF916E
:100FB0000895CF93DF93CDB7DEB728970FB6F89497
:100FC000DEBF0FBECDBF9C838B837E836D8358872E
:100FD0004F831A8219828F8198859C012150310993
:100FE00038872F8321E0892B09F420E0222311F197
:100FF0008B819C81FC0180819181FC012081318168
:101000008D819E81AC014F5F5F4F5E834D83FC01FC
:1010100040818B819C81642FF901099521E0892B06
:1010200009F420E0222331F089819A8101969A8384
:101030008983D1CF89819A8128960FB6F894DEBF33
:101040000FBECDBFDF91CF910895CF93DF93CDB782
:10105000DEB72C970FB6F894DEBF0FBECDBF9A87D0
:1010600089877C876B878B859C859A8389831C8283
:101070001B8289819A819C012F5F3F4F3A8329838C
:101080009E838D838D819E81FC0184918F838F81CE
:10109000888788858823C9F089859A85FC018081A5
:1010A0009181FC012081318189859A856885F901CA
:1010B000099521E0892B09F420E0222331F08B816E
:1010C0009C8101969C838B83D4CF8B819C812C96B1
:1010D0000FB6F894DEBF0FBECDBFDF91CF9108955C
:1010E0000F931F93CF93DF9300D000D0CDB7DEB71F
:1010F0009A8389837C836B838B819C810E945F07A9
:101100008C018B819C810E9470079C0189819A814E
:10111000A801B9010E94B2070F900F900F900F9095
:10112000DF91CF911F910F910895CF93DF9300D05E
:1011300000D0CDB7DEB79A8389837C836B832B8104
:101140003C8189819A81B9010E9481070F900F909B
:101150000F900F90DF91CF910895CF93DF9300D040
:101160001F92CDB7DEB79A8389836B8389819A8179
:10117000FC0180819181FC01208131814B81898139
:101180009A81642FF90109950F900F900F90DF91CC
:10119000CF910895CF93DF9300D000D01F92CDB7A9
:1011A000DEB79A8389836B835D834C838B81882F21
:1011B00090E0A0E0B0E02C813D81E981FA81AC01B2
:1011C000BD01CF010E94AE090F900F900F900F90BC
:1011D0000F90DF91CF910895CF93DF9300D000D08F
:1011E00000D0CDB7DEB79A8389837C836B835E831F
:1011F0004D838B819C81092E000CAA0BBB0B2D818A
:101200003E81E981FA81AC01BD01CF010E9435091F
:1012100026960FB6F894DEBF0FBECDBFDF91CF91FB
:101220000895CF93DF9300D000D000D0CDB7DEB7C4
:101230009A8389837C836B835E834D838B819C81BE
:10124000CC01A0E0B0E02D813E81E981FA81AC01C2
:10125000BD01CF010E94AE0926960FB6F894DEBFFD
:101260000FBECDBFDF91CF910895CF93DF93CDB760
:10127000DEB72A970FB6F894DEBF0FBECDBF9C83B2
:101280008B834D835E836F8378873A87298789852F
:101290009A85892B79F48B819C81FC0180819181D5
:1012A000FC01208131814D818B819C81642FF9016A
:1012B00009954BC089859A850A97D9F58D819E81BC
:1012C000AF81B885BB2344F58B819C816DE20E9480
:1012D000AD089A8389838D819E81AF81B885B09551
:1012E000A095909581959F4FAF4FBF4F8D839E8363
:1012F000AF83B8878D819E81AF81B885EB81FC81FA
:101300002AE0AC01BD01CF010E94430C9C01898100
:101310009A81820F931F19C08D819E81AF81B885FC
:10132000EB81FC812AE0AC01BD01CF010E94430C9E
:101330000CC029858D819E81AF81B885EB81FC81B0
:10134000AC01BD01CF010E94430C2A960FB6F89460
:10135000DEBF0FBECDBFDF91CF910895CF93DF9356
:10136000CDB7DEB728970FB6F894DEBF0FBECDBF5E
:101370009A8389834B835C836D837E8338872F8335
:101380008F819885892B79F489819A81FC018081EC
:101390009181FC01208131814B8189819A81642F67
:1013A000F90109950CC02F818B819C81AD81BE8193
:1013B000E981FA81AC01BD01CF010E94430C28965E
:1013C0000FB6F894DEBF0FBECDBFDF91CF91089569
:1013D000CF93DF93CDB7DEB728970FB6F894DEBF73
:1013E0000FBECDBF9A8389834B835C836D837E83DD
:1013F00038872F832F818B819C81AD81BE81E981CC
:10140000FA81AC01BD01CF010E94B00C28960FB645
:10141000F894DEBF0FBECDBFDF91CF910895CF937B
:10142000DF9300D000D000D0CDB7DEB79C838B8394
:101430007E836D832D813E818B819C81B9010E94C9
:1014400025089A8389838B819C810E94590A9C017B
:1014500089819A81820F931F9A83898389819A81D6
:1014600026960FB6F894DEBF0FBECDBFDF91CF91A9
:101470000895CF93DF9300D000D0CDB7DEB79A8325
:1014800089837C836B838B819C81FC01808191812A
:10149000FC012081318149815A818B819C81BA0173
:1014A000F90109950F900F900F900F90DF91CF9158
:1014B0000895CF93DF9300D0CDB7DEB79A838983A9
:1014C00089819A816BE172E00E9481070F900F90F1
:1014D000DF91CF910895CF93DF9300D000D000D05B
:1014E000CDB7DEB79C838B837E836D832D813E8158
:1014F0008B819C81B9010E9470089A8389838B81BA
:101500009C810E94590A9C0189819A81820F931FB4
:101510009A83898389819A8126960FB6F894DEBFD3
:101520000FBECDBFDF91CF910895CF93DF9300D051
:1015300000D000D0CDB7DEB79C838B837E836D83D4
:101540002D813E818B819C81B9010E9495089A83EF
:1015500089838B819C810E94590A9C0189819A818F
:10156000820F931F9A83898389819A8126960FB669
:10157000F894DEBF0FBECDBFDF91CF910895CF931A
:10158000DF9300D000D01F92CDB7DEB79C838B8352
:101590006D838B819C816D810E94AD089A838983C4
:1015A0008B819C810E94590A9C0189819A81820FBA
:1015B000931F9A83898389819A810F900F900F904E
:1015C0000F900F90DF91CF910895CF93DF9300D0CC
:1015D00000D000D01F92CDB7DEB79C838B836D8384
:1015E0005F834E832E813F818B819C81A9016D8118
:1015F0000E94CA089A8389838B819C810E94590A20
:101600009C0189819A81820F931F9A8389838981A2
:101610009A8127960FB6F894DEBF0FBECDBFDF913B
:10162000CF910895CF93DF93CDB7DEB728970FB64C
:10163000F894DEBF0FBECDBF9C838B837E836D830A
:1016400058874F834F8158852D813E818B819C81A6
:10165000B9010E94EC089A8389838B819C810E9446
:10166000590A9C0189819A81820F931F9A838983E9
:1016700089819A8128960FB6F894DEBF0FBECDBF40
:10168000DF91CF910895CF93DF93CDB7DEB7289741
:101690000FB6F894DEBF0FBECDBF9C838B837E83D5
:1016A0006D8358874F834F8158852D813E818B8173
:1016B0009C81B9010E9411099A8389838B819C8145
:1016C0000E94590A9C0189819A81820F931F9A83F3
:1016D000898389819A8128960FB6F894DEBF0FBE60
:1016E000CDBFDF91CF910895CF93DF93CDB7DEB714
:1016F0002A970FB6F894DEBF0FBECDBF9C838B83B5
:101700004D835E836F8378873A87298729853A8559
:101710008D819E81AF81B885EB81FC81AC01BD01DB
:10172000CF010E9435099A8389838B819C810E9415
:10173000590A9C0189819A81820F931F9A83898318
:1017400089819A812A960FB6F894DEBF0FBECDBF6D
:10175000DF91CF910895CF93DF93CDB7DEB72A976E
:101760000FB6F894DEBF0FBECDBF9C838B834D8335
:101770005E836F8378873A87298729853A858D81AB
:101780009E81AF81B885EB81FC81AC01BD01CF01A9
:101790000E94AE099A8389838B819C810E94590A99
:1017A0009C0189819A81820F931F9A838983898101
:1017B0009A812A960FB6F894DEBF0FBECDBFDF9197
:1017C000CF910895CF93DF93CDB7DEB72A970FB6A9
:1017D000F894DEBF0FBECDBF9C838B834D835E83A9
:1017E0006F8378873A87298729853A858D819E81FD
:1017F000AF81B885EB81FC81AC01BD01CF010E94B6
:10180000E8099A8389838B819C810E94590A9C01F3
:1018100089819A81820F931F9A83898389819A8112
:101820002A960FB6F894DEBF0FBECDBFDF91CF91E1
:101830000895CF93DF9300D000D000D0CDB7DEB7AE
:101840009C838B837E836D832D813E818B819C81E4
:10185000B9010E94390A9A8389838B819C810E94F5
:10186000590A9C0189819A81820F931F9A838983E7
:1018700089819A8126960FB6F894DEBF0FBECDBF40
:10188000DF91CF910895CF93DF93CDB7DEB7AB97BC
:101890000FB6F894DEBF0FBECDBF9EA38DA34FA39E
:1018A00058A769A77AA72BA7CE01049680969A839A
:1018B000898389819A81FC0110828BA5823010F482
:1018C0008AE08BA78BA5282F30E040E050E08FA165
:1018D00098A5A9A5BAA5BC01CD010E94A233DC013F
:1018E000CB018B838BA5282F30E040E050E08FA107
:1018F00098A5A9A5BAA5BC01CD010E94A233DA0121
:10190000C9018FA398A7A9A7BAA78B818A3024F40D
:101910008B81805D282F03C08B81895C282F898172
:101920009A8101979A83898389819A81FC01208316
:101930008FA198A5A9A5BAA5892B8A2B8B2B11F667
:1019400029813A818DA19EA1B9010E948107AB96A0
:101950000FB6F894DEBF0FBECDBFDF91CF910895D3
:10196000CF92DF92EF92FF921F93CF93DF93CDB789
:10197000DEB768970FB6F894DEBF0FBECDBF9B8B66
:101980008A8B4C8B5D8B6E8B7F8B288F1A82198292
:101990002C893D894E895F896C897D898E899F89D3
:1019A0000E949D33882311F081E001C080E08823EC
:1019B00039F08A899B896EE172E00E94950839C1ED
:1019C0008C899D89AE89BF896C017D01E894F7F807
:1019D00011E02FEF3FEF4FE75FE7C701B6010E942D
:1019E0009D33882359F42FEF3FEF4FE75FE7C7019F
:1019F000B6010E94123118160CF410E081E0812724
:101A0000882F90E08170882339F08A899B8962E26F
:101A100072E00E9495080DC12FEF3FEF4FE75FE4A2
:101A20006C897D898E899F890E94983318163CF4B1
:101A30008A899B8966E272E00E949508FAC02FEFBE
:101A40003FEF4FE75FEC6C897D898E899F890E940B
:101A5000123188233CF48A899B8966E272E00E94F5
:101A60009508E7C020E030E0A9016C897D898E8966
:101A70009F890E9412318823ACF48A899B896DE288
:101A80000E94AD089C0189819A81820F931F9A83DD
:101A900089838C899D89AE89BF89B0588C8B9D8B39
:101AA000AE8BBF8B80E090E0A0E0BFE38B839C8394
:101AB000AD83BE831F829F81888D9817A0F420E09C
:101AC00030E040E251E46B817C818D819E810E94F7
:101AD000F732DC01CB018B839C83AD83BE838F8186
:101AE0008F5F8F83E8CF2B813C814D815E816C8934
:101AF0007D898E899F890E948B32DC01CB018C8B82
:101B00009D8BAE8BBF8B6C897D898E899F890E944E
:101B10006933DC01CB018C879D87AE87BF876C85DD
:101B20007D858E859F850E941731DC01CB019C014C
:101B3000AD016C897D898E899F890E948A32DC0182
:101B4000CB0188879987AA87BB878C859D85AE85C1
:101B5000BF85EA89FB892AE030E0AC01BD01CF01F5
:101B60000E94AE099C0189819A81820F931F9A83FA
:101B70008983888D882361F08A899B896EE20E941F
:101B8000AD089C0189819A81820F931F9A83898372
:101B9000888D9FEF980F988F91E0882309F490E04B
:101BA000992309F444C020E030E040E251E4688524
:101BB00079858A859B850E947831DC01CB018887F5
:101BC0009987AA87BB87688579858A859B850E94C6
:101BD0006933DC01CB01998B888B288939898A8903
:101BE0009B894AE050E0B9010E9411099C0189815A
:101BF0009A81820F931F9A83898388899989CC015E
:101C0000A0E0B0E0BC01CD010E941731DC01CB01A6
:101C10009C01AD01688579858A859B850E948A3201
:101C2000DC01CB0188879987AA87BB87B1CF8981DF
:101C30009A8168960FB6F894DEBF0FBECDBFDF91D4
:101C4000CF911F91FF90EF90DF90CF900895CF93A9
:101C5000DF9300D01F92CDB7DEB79A8389836B8361
:101C600089819A816B810E94E71989819A810F90FD
:101C70000F900F90DF91CF910895CF93DF9300D015
:101C800000D0CDB7DEB79C838B830E94A928DC01EE
:101C9000CB012B813C81F90180879187A287B38793
:101CA0008B819C81FC01808191810A96FC012081BD
:101CB00031818B819C81F90109959A83898389817E
:101CC0009A8199231CF089819A8121C00E94A928B8
:101CD0009B01AC018B819C81FC0180859185A28553
:101CE000B385281B390B4A0B5B0B8B819C81FC0154
:101CF00084819581A681B78161E0281739074A0759
:101D00005B0708F060E0662359F68FEF9FEF0F90B6
:101D10000F900F900F90DF91CF910895CF93DF93A5
:101D200000D000D0CDB7DEB79C838B830E94A9285A
:101D3000DC01CB012B813C81F90180879187A2874F
:101D4000B3878B819C81FC01808191810C96FC0181
:101D5000208131818B819C81F90109959A83898346
:101D600089819A8199231CF089819A8121C00E94DE
:101D7000A9289B01AC018B819C81FC018085918508
:101D8000A285B385281B390B4A0B5B0B8B819C8189
:101D9000FC0184819581A681B78161E0281739070C
:101DA0004A075B0708F060E0662359F68FEF9FEF64
:101DB0000F900F900F900F90DF91CF910895CF93D8
:101DC000DF9300D000D000D01F92CDB7DEB79C8348
:101DD0008B837E836D834F838B819C810E948E0ECB
:101DE0009A83898389819A8199239CF089819A8138
:101DF0008D9779F089819A81C09724F089819A81A1
:101E0000CA973CF08F81882339F089819A818E9717
:101E100019F489819A812BC08D819E818130910531
:101E200019F0029721F015C08FEF9FEF20C0898134
:101E30009A818D30910561F08E30910524F40997D7
:101E4000029718F405C0809719F08FEF9FEF0FC02D
:101E500000008B819C81FC01808191810A96FC01AC
:101E6000208131818B819C81F9010995B5CF27961D
:101E70000FB6F894DEBF0FBECDBFDF91CF910895AE
:101E8000CF93DF9300D000D000D0CDB7DEB79A83D8
:101E900089834B835C836D837E8329813A818B8127
:101EA0009C81AD81BE81F90184839583A683B7832C
:101EB00026960FB6F894DEBF0FBECDBFDF91CF914F
:101EC00008950F931F93CF93DF9300D000D0CDB729
:101ED000DEB79A8389837C836B838B819C810E948C
:101EE000FE35AC016B817C8189819A8100E010E034
:101EF00020E030E00E94D70F0F900F900F900F90CE
:101F0000DF91CF911F910F9108950F931F93CF935E
:101F1000DF9300D000D000D0CDB7DEB79A8389839D
:101F20007C836B835E834D834D815E816B817C817D
:101F300089819A8100E010E020E030E00E94D70F14
:101F400026960FB6F894DEBF0FBECDBFDF91CF91BE
:101F50001F910F9108950F931F93CF93DF9300D09C
:101F600000D000D0CDB7DEB79A8389837C836B83A2
:101F70005E834D838D819E810E94FE358C018B8115
:101F80009C810E94FE35AC012D813E816B817C815C
:101F900089819A810E94D70F26960FB6F894DEBFEA
:101FA0000FBECDBFDF91CF911F910F9108950F9379
:101FB0001F93CF93DF93CDB7DEB76C970FB6F8942E
:101FC000DEBF0FBECDBF9C8B8B8B7E8B6D8B588FF6
:101FD0004F8B3A8F298F1C8F0B8F898D9A8D892B70
:101FE00001F526E0CE010D96FC01322F11923A95B3
:101FF000E9F78D899E899E878D878F89988D988B2B
:102000008F879E01235F3F4F8B899C8941E050E081
:10201000B9010E94DF129C0181E0232B49F180E08D
:1020200027C02CE0CE010196FC01322F11923A9587
:10203000E9F78D899E899A8389838F89988D9C83FE
:102040008B83898D9A8D98878F838B8D9C8D9A87B2
:1020500089878B899C8942E050E09E012F5F3F4F2A
:10206000B9010E94DF129C0181E0232B09F080E07E
:102070006C960FB6F894DEBF0FBECDBFDF91CF9147
:102080001F910F910895CF93DF93CDB7DEB72C97B3
:102090000FB6F894DEBF0FBECDBF998788877B87C8
:1020A0006A874C8719821A821B821C821D822A85AC
:1020B0003B858885998540E0B9010E94DF0E9F83AA
:1020C0008E838E819F81992324F480E090E0DC014F
:1020D0007DC08C85082E000C990B2E813F8128171E
:1020E0003907C1F18E819F818D9719F481E0898331
:1020F00031C08E819F81C0976CF18E819F81CA977C
:102100004CF52A813B814C815D81DA01C901880F40
:10211000991FAA1FBB1F880F991FAA1FBB1F820FE1
:10212000931FA41FB51F880F991FAA1FBB1F9C01D7
:10213000AD018E819F81092E000CAA0BBB0B820F73
:10214000931FA41FB51FC097A109B1098A839B8360
:10215000AC83BD8388859985FC01808191810A9635
:10216000FC012081318188859985F901099588854F
:1021700099850E948E0E9F838E838E819F81C0974A
:102180002CF08E819F81CA970CF4A3CF8C85082EEA
:10219000000C990B2E813F812817390709F499CF3C
:1021A0008981882379F08A819B81AC81BD81B0953A
:1021B000A095909581959F4FAF4FBF4F8A839B838A
:1021C000AC83BD838A819B81AC81BD81BC01CD0183
:1021D0002C960FB6F894DEBF0FBECDBFDF91CF9126
:1021E0000895CF93DF93CDB7DEB761970FB6F8941C
:1021F000DEBF0FBECDBF9E878D87788B6F87498BE3
:1022000019821A821B821C821D821E8280E090E04D
:10221000A0E8BFE389879A87AB87BC872F85388979
:102220008D859E8541E0B9010E94DF0E98878F83DE
:102230008F819885992324F480E090E0DC01BBC075
:102240008989082E000C990B2F81388528173907AA
:1022500009F453C08F8198858D9719F481E08983A3
:102260004CC08F8198858E9719F481E08A8345C090
:102270008F819885C0970CF440C08F819885CA974C
:10228000E4F52B813C814D815E81DA01C901880F23
:10229000991FAA1FBB1F880F991FAA1FBB1F820F60
:1022A000931FA41FB51F880F991FAA1FBB1F9C0156
:1022B000AD018F819885092E000CAA0BBB0B820FF4
:1022C000931FA41FB51FC097A109B1098B839C83DD
:1022D000AD83BE838A81882381F02DEC3CEC4CECED
:1022E0005DE369857A858B859C850E947831DC0168
:1022F000CB0189879A87AB87BC878D859E85FC013A
:10230000808191810A96FC01208131818D859E8595
:10231000F90109958D859E850E948E0E98878F8381
:102320008F819885C0972CF08F819885CA970CF47F
:1023300087CF8F8198858E9721F48A81882309F42D
:102340007FCF8989082E000C990B2F81388528179B
:10235000390709F475CF8981882379F08B819C81B5
:10236000AD81BE81B095A095909581959F4FAF4F5F
:10237000BF4F8B839C83AD83BE838A81882399F072
:102380006B817C818D819E810E941931DC01CB01A2
:1023900029853A854B855C85BC01CD010E94783149
:1023A000DC01CB0108C06B817C818D819E810E9404
:1023B0001931DC01CB01BC01CD0161960FB6F89457
:1023C000DEBF0FBECDBFDF91CF910895CF93DF93D6
:1023D000CDB7DEB72A970FB6F894DEBF0FBECDBFDC
:1023E0009E838D8378876F835A8749871A821982E3
:1023F00029813A8189859A8528173907D0F48D81FA
:102400009E810E943D0E9C838B838B819C819923AE
:1024100084F08F8198859C012F5F3F4F38872F83F1
:102420002B81FC01208389819A8101969A8389837B
:10243000DFCF89819A812A960FB6F894DEBF0FBE4E
:10244000CDBFDF91CF910895CF93DF93CDB7DEB7A6
:102450002B970FB6F894DEBF0FBECDBF9E838D8342
:102460006F83598748873B872A871A821982298177
:102470003A818A859B852817390718F58D819E81B9
:102480000E943D0E9C838B838B819C819923CCF091
:102490008F81082E000C990B2B813C81281739075E
:1024A00081F0888599859C012F5F3F4F3987288768
:1024B0002B81FC01208389819A8101969A838983EB
:1024C000D6CF89819A812B960FB6F894DEBF0FBEC6
:1024D000CDBFDF91CF910895CF93DF9300D000D08F
:1024E00000D0CDB7DEB79C838B837E836D838B81D9
:1024F0009C816DE172E00E9478148D819E810E9422
:102500003D0E9A83898389819A8199236CF0298170
:102510008B819C81622F0E94270E8D819E810E945B
:102520003D0E9A838983EFCF00008B819C81269694
:102530000FB6F894DEBF0FBECDBFDF91CF910895E7
:10254000CF93DF9300D000D000D01F92CDB7DEB77D
:102550009C838B837E836D834F838B819C816DE114
:1025600072E00E9478148D819E810E943D0E9A83B4
:10257000898389819A819923B4F08F81082E000C78
:10258000990B29813A812817390769F029818B81B4
:102590009C81622F0E94270E8D819E810E943D0E9C
:1025A0009A838983E6CF00008B819C8127960FB6A2
:1025B000F894DEBF0FBECDBFDF91CF910895CF93CA
:1025C000DF93CDB7DEB762970FB6F894DEBF0FBECC
:1025D000CDBF9E878D87788B6F875A8B498B8F8570
:1025E00098899A83898329893A89C901880F991F13
:1025F000820F931F880F991F9C018F859889820FE6
:10260000931F29813A812817390718F589819A8102
:10261000FC0182819381892BB1F429813A818F85D4
:102620009889A901481B590BCA019C01359527952A
:102630008BEA9AEA289FA001299F500D389F500DE0
:102640001124CA0120C189819A8106969A838983BF
:10265000CACF8D859E850E943D0E98878F838F817E
:10266000988599231CF48FEF9FEF0DC18F85988972
:102670009C838B8329893A89C901880F991F820F0E
:10268000931F880F991F9C018F859889820F931F34
:102690002B813C8128173907E0F68B819C81FC0156
:1026A000208131818B819C81FC0184819581820F05
:1026B000931FFC018081082E000C990B2F81388517
:1026C00028173907A9F58B819C81FC0184819581AC
:1026D0009C012F5F3F4F8B819C81FC0135832483BC
:1026E0008B819C81FC01248135818B819C81FC0143
:1026F0008281938141E02817390709F040E04423A3
:1027000009F4BAC02B813C818F859889A901481BA7
:10271000590BCA019C01359527958BEA9AEA289FA7
:10272000A001299F500D389F500D1124CA01ABC044
:102730008B819C81FC0184819581892B09F49DC04A
:102740008B819C81FC01848195819A8789878B810B
:102750009C81FC01848195819C01215031098B81F0
:102760009C81FC01358324838B819C81FC01208129
:1027700031818B819C81FC0184819581820F931F23
:10278000FC018081082E000C990B2F8138852817B9
:10279000390709F068C08B819C81FC018481958197
:1027A000892B71F48B819C81FC01848195819C0132
:1027B0002F5F3F4F8B819C81FC01358324835DC05B
:1027C00029853A858B819C81FC0184819581A901B1
:1027D000481B590BCA019C878B871E821D828B81E7
:1027E0009C81FC01848195812D813E8128173907C8
:1027F00010F58B819C81FC01208131818D819E812E
:10280000820F931FFC0160818B819C81FC012081E0
:1028100031814B855C858D819E81840F951F820F50
:10282000931FFC018081681731F48D819E81019690
:102830009E838D83D4CF8B819C81FC018481958183
:102840002D813E812817390771F48B819C81FC0111
:10285000848195819C012F5F3F4F8B819C81FC017E
:10286000358324830AC08B819C81FC0184819581FE
:10287000892B09F06CCF01C000008B819C810696EA
:102880009C838B83F7CE62960FB6F894DEBF0FBEA3
:10289000CDBFDF91CF910895CF93DF9300D0CDB717
:1028A000DEB79A8389830F900F90DF91CF910895BF
:1028B000CF93DF9300D0CDB7DEB79A838983898128
:1028C0009A81FC0180819181892B29F420E030E0FC
:1028D00040E050E004C02CE434E140E050E0DA0194
:1028E000C901BC01CD010F900F90DF91CF910895E8
:1028F000CF93DF9300D000D0CDB7DEB79A83898322
:102900007C836B8389819A810E94B0168B819C8124
:10291000892B61F08B819C810E94FE35AC012B815B
:102920003C8189819A81B9010E9474170F900F90A0
:102930000F900F90DF91CF910895CF93DF9300D048
:1029400000D0CDB7DEB79A8389837C836B8389817E
:102950009A810E94B0162B813C8189819A81B901AC
:102960000E947A180F900F900F900F90DF91CF91E7
:102970000895CF93DF9300D000D0CDB7DEB79A8310
:1029800089837C836B8389819A810E94B0162B8115
:102990003C8189819A81B9010E941C190F900F9086
:1029A0000F900F90DF91CF910895CF93DF9300D0D8
:1029B00000D0CDB7DEB79A8389837C836B8389810E
:1029C0009A810E94B0162B813C8189819A81B9013C
:1029D0000E94F0170F900F900F900F90DF91CF9102
:1029E0000895CF93DF9300D000D0CDB7DEB79A83A0
:1029F00089837C836B8389819A810E94B0162B81A5
:102A00003C8189819A81B9010E94F0170F900F9043
:102A10000F900F90DF91CF910895CF93DF9300D067
:102A200000D01F92CDB7DEB79C838B836D838B81E3
:102A30009C810E94B0168D8189831A828B819C8132
:102A40009E012F5F3F4FB9010E94F4180F900F9025
:102A50000F900F900F90DF91CF910895CF93DF9358
:102A6000CDB7DEB72D970FB6F894DEBF0FBECDBF42
:102A70009B878A876C874D878A859B850E94B016C5
:102A80008D85282F30E08C85882F90E0A9019E014C
:102A90002F5F3F4FB9010E94352D8A859B859E018E
:102AA0002F5F3F4FB9010E94F4182D960FB6F8948E
:102AB000DEBF0FBECDBFDF91CF910895CF93DF93DF
:102AC000CDB7DEB767970FB6F894DEBF0FBECDBFA8
:102AD0009C8B8B8B7E8B6D8B4F8B8B899C890E9403
:102AE000B0168F89282F30E08D899E89A9019E011B
:102AF0002F5F3F4FB9010E94C32C8B899C899E0197
:102B00002F5F3F4FB9010E94F41867960FB6F894F3
:102B1000DEBF0FBECDBFDF91CF910895CF93DF937E
:102B2000CDB7DEB766970FB6F894DEBF0FBECDBF48
:102B30009B8B8A8B7D8B6C8B4E8B8A899B890E94A9
:102B4000B0168E89282F30E08C899D89A9019E01BD
:102B50002F5F3F4FB9010E94352D8A899B899E01C5
:102B60002F5F3F4FB9010E94F41866960FB6F89494
:102B7000DEBF0FBECDBFDF91CF910895CF93DF931E
:102B8000CDB7DEB7A9970FB6F894DEBF0FBECDBFA5
:102B90009CA38BA34DA35EA36FA378A729A78BA1AA
:102BA0009CA10E94B01689A5282F30E08DA19EA17E
:102BB000AFA1B8A5AE014F5F5F4FBC01CD010E9430
:102BC000D92C8BA19CA19E012F5F3F4FB9010E9480
:102BD000F418A9960FB6F894DEBF0FBECDBFDF91F3
:102BE000CF910895CF93DF93CDB7DEB7A8970FB6F7
:102BF000F894DEBF0FBECDBF9BA38AA34CA35DA3F9
:102C00006EA37FA328A78AA19BA10E94B01688A5C6
:102C1000282F30E08CA19DA1AEA1BFA1AE014F5FD6
:102C20005F4FBC01CD010E94082D8AA19BA19E018E
:102C30002F5F3F4FB9010E94F418A8960FB6F89481
:102C4000DEBF0FBECDBFDF91CF9108950F931F93CD
:102C5000CF93DF93CDB7DEB7A8970FB6F894DEBF5A
:102C60000FBECDBF9BA38AA34CA35DA36EA37FA37E
:102C700028A78AA19BA10E94B01688A58E5F482F25
:102C80008CA19DA1AEA1BFA19E012F5F3F4F8901E5
:102C900028A5BC01CD010E946A2C9C018AA19BA1A0
:102CA000B9010E94F418A8960FB6F894DEBF0FBEC3
:102CB000CDBFDF91CF911F910F9108950F931F9377
:102CC000CF93DF93CDB7DEB7A8970FB6F894DEBFEA
:102CD0000FBECDBF9BA38AA34CA35DA36EA37FA30E
:102CE00028A78AA19BA10E94B01688A58E5F482FB5
:102CF0008CA19DA1AEA1BFA19E012F5F3F4F890175
:102D000028A5BC01CD010E946A2C9C018AA19BA12F
:102D1000B9010E94F418A8960FB6F894DEBF0FBE52
:102D2000CDBFDF91CF911F910F910895CF93DF9386
:102D300000D0CDB7DEB79A83898389819A81FC015F
:102D400080819181892B39F089819A81FC01808170
:102D500091810E9466340F900F90DF91CF9108957A
:102D6000CF93DF9300D0CDB7DEB79A838983898173
:102D70009A81FC011182108289819A81FC0113825F
:102D8000128289819A81FC01158214820F900F9022
:102D9000DF91CF910895CF93DF9300D0CDB7DEB709
:102DA0009A83898389819A81FC0180819181892B11
:102DB00039F089819A81FC01808191810E94663479
:102DC00089819A81FC011182108289819A81FC019A
:102DD0001582148289819A81FC012481358189813F
:102DE0009A81FC01338322830F900F90DF91CF9162
:102DF0000895CF93DF9300D000D0CDB7DEB79A838C
:102E000089837C836B8389819A81FC018081918194
:102E1000892B61F089819A81FC01828193812B81C8
:102E20003C818217930710F081E01FC02B813C8109
:102E300089819A81B9010E943C17982F81E09923DA
:102E400009F480E0882381F089819A81FC018481E2
:102E50009581892B39F489819A81FC018081918146
:102E6000FC01108281E001C080E00F900F900F9074
:102E70000F90DF91CF910895CF93DF9300D000D0D2
:102E800000D0CDB7DEB79C838B837E836D838D812D
:102E90009E819C012F5F3F4F8B819C81FC01808133
:102EA0009181B9010E94EF349A83898389819A8143
:102EB000892B81F08B819C8129813A81FC013183AE
:102EC00020838B819C812D813E81FC013383228371
:102ED00081E001C080E026960FB6F894DEBF0FBEF9
:102EE000CDBFDF91CF910895CF93DF9300D000D075
:102EF00000D0CDB7DEB79A8389837C836B835E83F2
:102F00004D832D813E8189819A81B9010E94F916F4
:102F1000982F81E0992309F080E0882339F0898196
:102F20009A810E94CB1689819A8113C089819A81E6
:102F30002D813E81FC013583248389819A81FC01A6
:102F4000808191812B813C81B9010E94F735898173
:102F50009A8126960FB6F894DEBF0FBECDBFDF91E3
:102F6000CF910895CF93DF9300D000D000D0CDB79C
:102F7000DEB79A8389837C836B835E834D832D8147
:102F80003E8189819A81B9010E94F916982F81E0CA
:102F9000992309F080E0882339F089819A810E9481
:102FA000CB1689819A8113C089819A812D813E81B6
:102FB000FC013583248389819A81FC018081918180
:102FC0002B813C81B9010E94B32C89819A8126967C
:102FD0000FB6F894DEBF0FBECDBFDF91CF9108953D
:102FE000CF93DF9300D000D0CDB7DEB79A8389832B
:102FF0007C836B8389819A81FC0180819181892BFB
:1030000009F444C08B819C810E945814DC01CB01DF
:103010009C01232B29F4CD0181709927892B79F00C
:1030200089819A81FC01228133818B819C81FC0101
:10303000848195812817390710F081E001C080E074
:103040008823E9F08B819C81FC0120813181898179
:103050009A81FC0180819181B9010E94F7358B81B1
:103060009C81FC012481358189819A81FC01358311
:1030700024838B819C81FC011582148234C0898158
:103080009A81FC01808191810E9466348B819C81B0
:10309000FC012081318189819A81FC013183208367
:1030A0008B819C81FC012281338189819A81FC0181
:1030B000338322838B819C81FC012481358189812A
:1030C0009A81FC01358324838B819C81FC011182D0
:1030D00010828B819C81FC01138212828B819C81E6
:1030E000FC01158214820F900F900F900F90DF91CA
:1030F000CF910895CF93DF9300D000D0CDB7DEB746
:103100009A8389837C836B8329813A818B819C811B
:103110002817390719F489819A811DC08B819C81F8
:10312000FC0180819181892B81F08B819C81FC0144
:10313000448155818B819C81FC0120813181898171
:103140009A81B9010E94741704C089819A810E94F2
:10315000CB1689819A810F900F900F900F90DF917D
:10316000CF910895CF93DF9300D000D0CDB7DEB7D5
:103170009A8389837C836B8329813A818B819C81AB
:103180002817390739F02B813C8189819A81B9014F
:103190000E94F01789819A810F900F900F900F90E5
:1031A000DF91CF910895CF93DF9300D000D0CDB7BA
:1031B000DEB79A8389837C836B838B819C81298191
:1031C0003A812817390739F02B813C8189819A810E
:1031D000B9010E94F01789819A810F900F900F908A
:1031E0000F90DF91CF910895CF93DF9300D000D05F
:1031F000CDB7DEB79A8389837C836B838B819C8177
:10320000892B69F08B819C810E94FE35AC012B815A
:103210003C8189819A81B9010E94741704C0898117
:103220009A810E94CB1689819A810F900F900F90FE
:103230000F90DF91CF910895CF93DF9300D000D00E
:1032400000D0CDB7DEB79C838B837E836D838D8169
:103250009E81892B89F08D819E819A8389838981C2
:103260009A810E94BA2CAC012D813E818B819C8178
:10327000B9010E94B21704C08B819C810E94CB16B9
:103280008B819C8126960FB6F894DEBF0FBECDBF12
:10329000DF91CF910895CF93DF9300D000D0CDB7C9
:1032A000DEB79A8389837C836B838B819C81FC014D
:1032B000448155818B819C81FC01208131818981F0
:1032C0009A81B9010E946B190F900F900F900F9087
:1032D000DF91CF910895CF93DF93CDB7DEB72897D5
:1032E0000FB6F894DEBF0FBECDBF9C838B837E8369
:1032F0006D8358874F838B819C81FC0184819581EC
:103300002F813885820F931F9A8389838D819E81B7
:10331000892B11F480E02FC08F819885892B11F4BF
:1033200081E029C029813A818B819C81B9010E9469
:10333000F916982F81E0992309F080E0882311F095
:1033400080E019C08B819C81FC01208131818B81BF
:103350009C81FC0184819581820F931F2D813E8188
:10336000B9010E94F7358B819C8129813A81FC014A
:103370003583248381E028960FB6F894DEBF0FBE14
:10338000CDBFDF91CF910895CF93DF9300D000D0D0
:10339000CDB7DEB79A8389837C836B838B819C81D5
:1033A000892B11F480E00CC08B819C810E94FE353A
:1033B000AC012B813C8189819A81B9010E946B19F2
:1033C0000F900F900F900F90DF91CF910895CF93B2
:1033D000DF9300D000D01F92CDB7DEB79C838B83E4
:1033E0006D838D8189831A828B819C8141E050E0BD
:1033F0009E012F5F3F4FB9010E946B190F900F90F4
:103400000F900F900F90DF91CF910895CF93DF939E
:1034100000D000D000D01F92CDB7DEB79E838D8341
:103420006F838F81882F90E04AE050E09E012F5FEC
:103430003F4FB9010E94C32CCE0101960E94FE3578
:103440009C018D819E81A9019E012F5F3F4FB90193
:103450000E946B1927960FB6F894DEBF0FBECDBF42
:10346000DF91CF910895CF93DF93CDB7DEB72C973F
:103470000FB6F894DEBF0FBECDBF9A8789877C87D1
:103480006B878B859C854AE050E09E012F5F3F4F04
:10349000B9010E94C32CCE0101960E94FE359C0109
:1034A00089859A85A9019E012F5F3F4FB9010E942E
:1034B0006B192C960FB6F894DEBF0FBECDBFDF910F
:1034C000CF910895CF93DF93CDB7DEB72B970FB68B
:1034D000F894DEBF0FBECDBF998788877B876A8748
:1034E0008A859B854AE050E09E012F5F3F4FB901DE
:1034F0000E94352DCE0101960E94FE359C018885E3
:103500009985A9019E012F5F3F4FB9010E946B1958
:103510002B960FB6F894DEBF0FBECDBFDF91CF91D3
:103520000895CF93DF93CDB7DEB764970FB6F894C5
:10353000DEBF0FBECDBF988B8F87498B5A8B6B8BAD
:103540007C8B89899A89AB89BC892AE030E0AE01FD
:103550004F5F5F4FBC01CD010E94D92CCE01019677
:103560000E94FE359C018F859889A9019E012F5FDD
:103570003F4FB9010E946B1964960FB6F894DEBFF5
:103580000FBECDBFDF91CF910895CF93DF93CDB71D
:10359000DEB763970FB6F894DEBF0FBECDBF9F872F
:1035A0008E87488B598B6A8B7B8B88899989AA89EE
:1035B000BB892AE030E0AE014F5F5F4FBC01CD0117
:1035C0000E94082DCE0101960E94FE359C018E8539
:1035D0009F85A9019E012F5F3F4FB9010E946B1982
:1035E00063960FB6F894DEBF0FBECDBFDF91CF91CB
:1035F00008950F931F93CF93DF93CDB7DEB76C97EA
:103600000FB6F894DEBF0FBECDBF988F8F8B498F5A
:103610005A8F6B8F7C8F9E012D5F3F4F898D9A8DC6
:10362000AB8DBC8D890122E044E0BC01CD010E943C
:103630006A2C9A83898389819A810E94FE35AC0124
:1036400029813A818F89988DB9010E946B196C96F6
:103650000FB6F894DEBF0FBECDBFDF91CF911F91A3
:103660000F9108950F931F93CF93DF93CDB7DEB7DC
:103670006C970FB6F894DEBF0FBECDBF988F8F8BBF
:10368000498F5A8F6B8F7C8F9E012D5F3F4F898DA5
:103690009A8DAB8DBC8D890122E044E0BC01CD0147
:1036A0000E946A2C9A83898389819A810E94FE35BF
:1036B000AC0129813A818F89988DB9010E946B19DB
:1036C0006C960FB6F894DEBF0FBECDBFDF91CF91E1
:1036D0001F910F910895CF93DF93CDB7DEB72A974F
:1036E0000FB6F894DEBF0FBECDBF98878F837A8761
:1036F000698789859A85892B11F480E044C0898582
:103700009A859E838D838D819E810E94BA2C9A8397
:10371000898389819A81892B11F481E034C08F815A
:103720009885FC012481358189819A81820F931FBC
:103730009C838B832B813C818F819885B9010E946A
:10374000F916982F81E0992309F080E0882311F081
:1037500080E019C08F819885FC01208131818F81A3
:103760009885FC0184819581820F931F29853A8574
:10377000B9010E94B32C8F8198852B813C81FC017B
:103780003583248381E02A960FB6F894DEBF0FBEFE
:10379000CDBFDF91CF910895CF93DF9300D000D0BC
:1037A00000D0CDB7DEB79C838B837E836D838B8106
:1037B0009C819A83898329813A818D819E81FC0134
:1037C000448155818D819E81FC0180819181BC0164
:1037D000C9010E946B19982F81E0992309F080E0BC
:1037E000882321F089819A810E94CB1689819A8150
:1037F00026960FB6F894DEBF0FBECDBFDF91CF91F6
:1038000008950F931F93CF93DF9300D000D000D083
:10381000CDB7DEB79C838B837E836D838B819C8148
:103820009A8389838D819E81892B81F009811A81F8
:103830008D819E810E94FE359C018D819E81A90112
:10384000BC01C8010E946B19882311F481E001C0FA
:1038500080E0882321F089819A810E94CB1689819A
:103860009A8126960FB6F894DEBF0FBECDBFDF91CA
:10387000CF911F910F910895CF93DF9300D000D087
:103880001F92CDB7DEB79C838B836D838B819C8128
:103890009A83898389819A816D810E94E719982F83
:1038A00081E0992309F080E0882321F089819A81C1
:1038B0000E94CB1689819A810F900F900F900F90E4
:1038C0000F90DF91CF910895CF93DF9300D000D078
:1038D0001F92CDB7DEB79C838B836D838B819C81D8
:1038E0009A83898389819A816D810E94061A982F13
:1038F00081E0992309F080E0882321F089819A8171
:103900000E94CB1689819A810F900F900F900F9093
:103910000F90DF91CF910895CF93DF9300D000D027
:1039200000D0CDB7DEB79C838B837E836D838B8184
:103930009C819A83898389819A812D813E81B901F5
:103940000E94331A982F81E0992309F080E08823A0
:1039500021F089819A810E94CB1689819A812696CD
:103960000FB6F894DEBF0FBECDBFDF91CF910895A3
:10397000CF93DF9300D000D000D0CDB7DEB79C83CB
:103980008B837E836D838B819C819A8389838981DC
:103990009A812D813E81B9010E94621A982F81E09F
:1039A000992309F080E0882321F089819A810E947F
:1039B000CB1689819A8126960FB6F894DEBF0FBE8A
:1039C000CDBFDF91CF910895CF93DF93CDB7DEB711
:1039D00028970FB6F894DEBF0FBECDBF9C838B83B4
:1039E0004D835E836F8378878B819C819A838983E3
:1039F00029813A818D819E81AF81B885AC01BD015D
:103A0000C9010E94911A982F81E0992309F080E062
:103A1000882321F089819A810E94CB1689819A811D
:103A200028960FB6F894DEBF0FBECDBFDF91CF91C1
:103A30000895CF93DF93CDB7DEB728970FB6F894EC
:103A4000DEBF0FBECDBF9C838B834D835E836F83B0
:103A500078878B819C819A83898329813A818D81A2
:103A60009E81AF81B885AC01BD01C9010E94C51A14
:103A7000982F81E0992309F080E0882321F0898143
:103A80009A810E94CB1689819A8128960FB6F89464
:103A9000DEBF0FBECDBFDF91CF910895CF93DF93EF
:103AA000CDB7DEB728970FB6F894DEBF0FBECDBFF7
:103AB0009C838B834D835E836F8378878B819C810E
:103AC0009A83898329813A818D819E81AF81B885CE
:103AD000AC01BD01C9010E94F91A982F81E0992318
:103AE00009F080E0882321F089819A810E94CB1619
:103AF00089819A8128960FB6F894DEBF0FBECDBF9C
:103B0000DF91CF910895CF93DF93CDB7DEB728979C
:103B10000FB6F894DEBF0FBECDBF9C838B834D8361
:103B20005E836F8378878B819C819A8389832981C7
:103B30003A818D819E81AF81B885AC01BD01C901FB
:103B40000E94321B982F81E0992309F080E088239E
:103B500021F089819A810E94CB1689819A812896C9
:103B60000FB6F894DEBF0FBECDBFDF91CF910895A1
:103B7000CF93DF9300D000D000D0CDB7DEB79C83C9
:103B80008B837E836D838B819C819A8389838981DA
:103B90009A812D813E81B9010E946B1B982F81E093
:103BA000992309F080E0882321F089819A810E947D
:103BB000CB1689819A8126960FB6F894DEBF0FBE88
:103BC000CDBFDF91CF910895CF93DF9300D000D088
:103BD000CDB7DEB79A8389837C836B8389819A8191
:103BE000FC0180819181892B39F08B819C81FC01C2
:103BF00080819181892BB1F58B819C81FC01808131
:103C00009181892BA1F08B819C81FC01848195811C
:103C1000892B69F08B819C81FC0180819181FC0161
:103C20008081882F90E091958195910928C08981A4
:103C30009A81FC0180819181892B89F089819A8107
:103C4000FC0184819581892B51F089819A81FC0145
:103C500080819181FC018081882F90E010C080E0FC
:103C600090E00DC08B819C81FC0120813181898194
:103C70009A81FC0180819181B9010E94EE350F90FB
:103C80000F900F900F90DF91CF910895CF93DF9316
:103C900000D000D0CDB7DEB79A8389837C836B8355
:103CA00089819A81FC01248135818B819C81FC0171
:103CB000848195812817390759F42B813C818981AA
:103CC0009A81B9010E94E41D892B11F481E001C0A1
:103CD00080E00F900F900F900F90DF91CF9108959B
:103CE000CF93DF9300D000D0CDB7DEB79A8389831E
:103CF0007C836B8389819A81FC0184819581892BE6
:103D000071F48B819C81892B31F08B819C81FC012A
:103D10008081882311F481E021C080E01FC08B8165
:103D20009C81892B61F489819A81FC018081918138
:103D3000FC01908181E0992389F080E00FC08981A6
:103D40009A81FC01808191812B813C81B9010E9483
:103D5000EE3521E0892B09F020E0822F0F900F90A3
:103D60000F900F90DF91CF910895CF93DF9300D004
:103D700000D0CDB7DEB79A8389837C836B832B8198
:103D80003C8189819A81B9010E94E41D892F881F95
:103D90008827881F0F900F900F900F90DF91CF9181
:103DA0000895CF93DF9300D000D0CDB7DEB79A83CC
:103DB00089837C836B832B813C8189819A81B901C2
:103DC0000E94E41D21E0181619060CF020E0822F55
:103DD0000F900F900F900F90DF91CF910895CF9398
:103DE000DF9300D000D0CDB7DEB79A8389837C8380
:103DF0006B832B813C8189819A81B9010E94E41DEA
:103E000021E0181619060CF420E0822F0F900F9075
:103E10000F900F90DF91CF910895CF93DF9300D053
:103E200000D0CDB7DEB79A8389837C836B832B81E7
:103E30003C8189819A81B9010E94E41D892F809576
:103E4000881F8827881F0F900F900F900F90DF9189
:103E5000CF9108950F931F93CF93DF93CDB7DEB724
:103E600028970FB6F894DEBF0FBECDBF9E838D831B
:103E700078876F832D813E818F8198852817390738
:103E800011F481E053C08D819E81FC012481358134
:103E90008F819885FC01848195812817390711F05D
:103EA00080E044C08D819E81FC0184819581892BB5
:103EB00011F481E03BC08D819E81FC018081918164
:103EC0009A8389838F819885FC01808191819C836D
:103ED0008B8389819A81FC018081882331F18981DA
:103EE0009A819C012F5F3F4F3A832983FC01808197
:103EF000082E000C990B0E94B1358C018B819C819E
:103F00009C012F5F3F4F3C832B83FC018081082E57
:103F1000000C990B0E94B13521E00817190709F42C
:103F200020E02223B1F280E001C081E028960FB6A4
:103F3000F894DEBF0FBECDBFDF91CF911F910F91DF
:103F40000895CF93DF9300D000D0CDB7DEB79A832A
:103F500089837C836B8389819A81FC0124813581EB
:103F60008B819C81FC01848195812817390710F48D
:103F700080E009C02B813C8189819A8140E050E03A
:103F8000B9010E94CA1F0F900F900F900F90DF9100
:103F9000CF910895CF93DF9300D000D000D0CDB75C
:103FA000DEB79A8389837C836B835E834D838981AB
:103FB0009A81FC01248135818B819C81FC01848163
:103FC0009581A901481B590BCA012D813E81821799
:103FD000930770F089819A81FC0180819181892BFE
:103FE00039F08B819C81FC0180819181892B11F4B6
:103FF00080E01AC08B819C81FC01448155818B81BA
:104000009C81FC016081718189819A81FC01208100
:1040100031818D819E81820F931F0E94073621E09E
:10402000892B09F020E0822F26960FB6F894DEBF88
:104030000FBECDBFDF91CF910895CF93DF9300D016
:1040400000D0CDB7DEB79A8389837C836B83898167
:104050009A81FC01248135818B819C81FC018481C2
:1040600095812817390770F089819A81FC01808138
:104070009181892B39F08B819C81FC018081918118
:10408000892B11F480E021C08B819C81FC0160812F
:10409000718189819A81FC012081318189819A8194
:1040A000FC01448155818B819C81FC018481958137
:1040B000FA01E81BF90BCF01820F931F0E94EE3526
:1040C00021E0892B09F020E0822F0F900F900F90B4
:1040D0000F90DF91CF910895CF93DF9300D000D060
:1040E000CDB7DEB79A8389837C836B832B813C8138
:1040F00089819A81B9010E94DE200F900F900F9064
:104100000F90DF91CF910895CF93DF9300D000D02F
:104110001F92CDB7DEB79A8389837C836B834D83EF
:1041200089819A81FC01848195812B813C812817AA
:10413000390760F489819A81FC01208131818B816A
:104140009C81820F931F2D81FC0120830F900F9083
:104150000F900F900F90DF91CF910895CF93DF9341
:1041600000D000D0CDB7DEB79A8389837C836B8380
:1041700089819A81FC01848195812B813C8128175A
:10418000390738F489819A81FC0180819181892BDA
:1041900029F41092D00280ED92E009C089819A81C1
:1041A000FC01208131818B819C81820F931F0F90B4
:1041B0000F900F900F90DF91CF910895CF93DF93E1
:1041C00000D000D0CDB7DEB79A8389837C836B8320
:1041D00089819A81FC01848195812B813C812817FA
:1041E000390738F489819A81FC0180819181892B7A
:1041F00011F480E00BC089819A81FC01208131811A
:104200008B819C81820F931FFC0180810F900F9006
:104210000F900F90DF91CF910895CF93DF93CDB79B
:10422000DEB72A970FB6F894DEBF0FBECDBF9C83D2
:104230008B837E836D8358874F833A8729878F814D
:104240009885892B09F44EC08D819E81892B09F4B4
:1042500049C08B819C81FC018481958129853A85A7
:104260002817390728F08D819E81FC0110823AC001
:104270008F81988501979A8389838B819C81FC012A
:104280002481358189859A85A901481B590BCA016A
:1042900029813A818217930768F48B819C81FC0104
:1042A0002481358189859A85A901481B590BCA014A
:1042B0009A8389838B819C81FC012081318189854E
:1042C0009A85280F391F49815A818D819E81B901B4
:1042D0000E9415362D813E8189819A81820F931F1C
:1042E000FC0110822A960FB6F894DEBF0FBECDBF38
:1042F000DF91CF910895CF93DF9300D01F92CDB778
:10430000DEB79A8389836B8389819A8140E050E08C
:104310006B810E9491210F900F900F90DF91CF91B0
:104320000895CF93DF9300D000D000D01F92CDB777
:10433000DEB79C838B836D835F834E838B819C81EF
:10434000FC01848195812E813F812817390718F05F
:104350008FEF9FEF22C08D81482F880F550B8B81E7
:104360009C81FC01208131818E819F81820F931F6E
:10437000BA010E94E3359A83898389819A81892BC6
:1043800019F48FEF9FEF09C089819A812B813C81BD
:10439000F90120813181821B930B27960FB6F89487
:1043A000DEBF0FBECDBFDF91CF910895CF93DF93D6
:1043B00000D000D0CDB7DEB79A8389837C836B832E
:1043C0002B813C8189819A8140E050E0B9010E94B3
:1043D000F0210F900F900F900F90DF91CF910895E3
:1043E000CF93DF93CDB7DEB728970FB6F894DEBF33
:1043F0000FBECDBF9C838B837E836D8358874F8395
:104400008B819C81FC01848195812F8138852817BF
:10441000390718F08FEF9FEF23C08D819E81FC013B
:10442000408151818B819C81FC01208131818F8170
:104430009885820F931FBA010E942F369A83898331
:1044400089819A81892B19F48FEF9FEF09C08981A7
:104450009A812B813C81F90120813181821B930B50
:1044600028960FB6F894DEBF0FBECDBFDF91CF9177
:104470000895CF93DF9300D01F92CDB7DEB79A8314
:1044800089836B8389819A81FC01848195819C0158
:104490002150310989819A81A9016B810E9456229C
:1044A0000F900F900F90DF91CF910895CF93DF93EE
:1044B000CDB7DEB728970FB6F894DEBF0FBECDBFDD
:1044C0009D838C836E8358874F838C819D81FC01F3
:1044D000848195812F8138852817390718F08FEF4F
:1044E0009FEF44C08C819D81FC01208131818F81AF
:1044F00098850196820F931FFC01808189838C81AE
:104500009D81FC01208131818F8198850196820FE8
:10451000931FFC0110828E81282F880F330B8C8112
:104520009D81FC0180819181B9010E9424369B8389
:104530008A838C819D81FC01208131818F819885C6
:104540000196820F931F2981FC0120838A819B8120
:10455000892B19F48FEF9FEF09C08A819B812C81F1
:104560003D81F90120813181821B930B28960FB682
:10457000F894DEBF0FBECDBFDF91CF910895CF93EA
:10458000DF9300D000D0CDB7DEB79A8389837C83D8
:104590006B8389819A81FC01248135818B819C8187
:1045A000FC0184819581A901481B590B2B813C8119
:1045B00089819A81B9010E94E4220F900F900F9097
:1045C0000F90DF91CF910895CF93DF93CDB7DEB7F2
:1045D0002A970FB6F894DEBF0FBECDBF9E838D83A2
:1045E00078876F835A8749878F819885FC018481FA
:1045F0009581892BA1F08D819E81FC01848195811B
:10460000892B69F08F819885FC01248135818D810A
:104610009E81FC01848195818217930718F48FEFA6
:104620009FEF5DC08D819E81FC01848195812985EC
:104630003A852817390740F08D819E81FC018481DD
:10464000958101979A8789878FEF9FEF9A83898356
:104650008D819E81FC01808191819C838B838D81E2
:104660009E81FC012081318189859A85820F931F6B
:104670002B813C818217930780F18F819885FC0103
:10468000208131818B819C81B9010E942F369C83CE
:104690008B838B819C81892B01F18B819C812D8166
:1046A0003E81F90120813181821B930B9C01898518
:1046B0009A858217930758F08B819C812D813E81CA
:1046C000F90120813181821B930B9A8389838B812D
:1046D0009C8101969C838B83C2CF89819A812A9683
:1046E0000FB6F894DEBF0FBECDBFDF91CF91089516
:1046F000CF93DF93CDB7DEB72B970FB6F894DEBF1D
:104700000FBECDBF9D838C837F836E83598748877F
:104710003B872A87288539858A859B858217930759
:1047200060F48A859B859A838983888599859B8790
:104730008A8789819A81998788878C819D816DE19B
:1047400072E00E9478148E819F81FC0184819581A2
:10475000288539852817390708F042C08E819F8146
:10476000FC01848195812A853B858217930738F463
:104770008E819F81FC01848195819B878A878E81B0
:104780009F81FC01208131818A859B85820F931F47
:10479000FC0180818B838E819F81FC01208131818E
:1047A0008A859B85820F931FFC0110828E819F81D9
:1047B000FC012081318188859985280F391F8C81E2
:1047C0009D81B9010E94F4188E819F81FC01208196
:1047D00031818A859B85820F931F2B81FC01208369
:1047E0008C819D812B960FB6F894DEBF0FBECDBF96
:1047F000DF91CF910895CF93DF9300D000D000D008
:10480000CDB7DEB79C838B836D834E838B819C8178
:10481000FC0180819181892BF9F08B819C81FC01C5
:10482000808191819A83898389819A81FC01808129
:10483000882391F089819A81FC0180819D8198175C
:1048400029F489819A812E81FC01208389819A81B2
:1048500001969A838983E8CF26960FB6F894DEBF37
:104860000FBECDBFDF91CF910895CF93DF93CDB72A
:10487000DEB764970FB6F894DEBF0FBECDBF988B3E
:104880008F877A8B698B5C8B4B8B8F859889FC012A
:1048900084819581892B09F4A4C189899A89FC01B5
:1048A00084819581892B09F49CC18B899C89FC01A9
:1048B0002481358189899A89FC0184819581A901A6
:1048C000481B590BCA019A8789878F859889FC01F3
:1048D000808191819A83898389859A85892B81F545
:1048E00089899A89FC012081318189819A81B90164
:1048F0000E942F369C878B8721E08B859C85892B96
:1049000009F420E0222309F46CC18B899C89FC0105
:10491000448155818B899C89FC01208131818B8563
:104920009C85B9010E94C1358B899C89FC018481D9
:1049300095812B853C85820F931F9A838983D0CFE5
:1049400089859A8599230CF073C08F859889FC011D
:10495000808191819C838B8389899A89FC01208144
:10496000318189819A81B9010E942F369C878B877A
:1049700021E08B859C85892B09F420E0222309F412
:104980004FC02B853C8589819A81A901481B590B11
:10499000CA019E878D874D855E8529813A818B81ED
:1049A0009C81B9010E94C1352B813C818D859E85FA
:1049B000820F931F9C838B838B899C89FC0144818C
:1049C00055818B899C89FC01208131818B819C815F
:1049D000B9010E94C1358B899C89FC018481958134
:1049E0002B813C81820F931F9C838B8389899A89B9
:1049F000FC01848195812B853C85820F931F9A83CE
:104A000089838F859889FC012481358189859A85E0
:104A1000280F391F8F859889FC01358324839CCF0B
:104A200029813A818B819C81B9010E94F735D9C0D7
:104A30008F859889FC01848195819E838D838989E6
:104A40009A89FC012081318189819A81B9010E9472
:104A50002F369C878B8721E08B859C85892B09F4D9
:104A600020E02223A1F089899A89FC018481958123
:104A70002B853C85820F931F9A83898389859A852C
:104A80002D813E81820F931F9E838D83D8CF8F858A
:104A90009889FC01848195812D813E8128173907F1
:104AA00009F49FC08F859889FC01828193812D81B3
:104AB0003E818217930758F42D813E818F85988916
:104AC000B9010E943C17882311F481E001C080E005
:104AD000882309F086C08F859889FC01848195819F
:104AE000019798878F838F81988599238CF04F81C8
:104AF000588529893A898F859889B9010E94E422CD
:104B000098878F838F819885992314F081E001C065
:104B100080E0882309F465C08F859889FC01208195
:104B2000318189899A89FC01448155818F819885D9
:104B3000840F951F820F931F9A8389838F8598898D
:104B4000FC018481958129813A814F855889FA0138
:104B500040815181241B350BAC01421B530B8985CD
:104B60009A8529813A81820F931F29813A81B9015F
:104B70000E94CA358F859889FC01248135818985F9
:104B80009A85280F391F8F859889FC0135832483E6
:104B90008F859889FC01208131818F859889FC015E
:104BA00084819581820F931FFC0110828B899C89DF
:104BB000FC01448155818B899C89FC016081718154
:104BC0008F859889FC01208131818F819885820FA2
:104BD000931F0E94C1358F819885019798878F8395
:104BE00082CF64960FB6F894DEBF0FBECDBFDF91C3
:104BF000CF910895CF93DF9300D000D0CDB7DEB72B
:104C00009A8389837C836B832B813C8189819A8100
:104C10004FEF5FEFB9010E9414260F900F900F9095
:104C20000F90DF91CF910895CF93DF93CDB7DEB78B
:104C300028970FB6F894DEBF0FBECDBF9C838B8341
:104C40007E836D8358874F838B819C81FC01848197
:104C500095812D813E812817390708F066C08F8124
:104C60009885892B09F461C08B819C81FC0124818A
:104C700035818D819E81A901481B590BCA012F8165
:104C800038858217930768F48B819C81FC0124810D
:104C900035818D819E81A901481B590BCA019887D6
:104CA0008F838B819C81FC01208131818D819E814C
:104CB000820F931F9A8389838B819C81FC012481BD
:104CC00035818F819885281B390B8B819C81FC0154
:104CD000358324838B819C81FC01248135818D81E6
:104CE0009E81B901681B790B8B819C81FC0120811D
:104CF00031814D815E818F819885840F951F280FAA
:104D0000391F89819A81AB01B9010E9415368B81C7
:104D10009C81FC01208131818B819C81FC018481FB
:104D20009581820F931FFC01108228960FB6F8948C
:104D3000DEBF0FBECDBFDF91CF910895CF93DF933C
:104D400000D000D0CDB7DEB79C838B838B819C8154
:104D5000FC0180819181892B09F18B819C81FC016F
:104D6000808191819A83898389819A81FC018081E4
:104D70008823A1F089819A81FC018081082E000C92
:104D8000990B0E94B135282F89819A81FC012083DB
:104D900089819A8101969A838983E6CF0F900F903B
:104DA0000F900F90DF91CF910895CF93DF9300D0B4
:104DB00000D0CDB7DEB79C838B838B819C81FC01B7
:104DC00080819181892B09F18B819C81FC018081FB
:104DD00091819A83898389819A81FC0180818823CA
:104DE000A1F089819A81FC018081082E000C990B29
:104DF0000E94B935282F89819A81FC0120838981FD
:104E00009A8101969A838983E6CF0F900F900F9035
:104E10000F90DF91CF910895CF93DF9300D000D012
:104E200000D0CDB7DEB79E838D838D819E81FC013E
:104E300080819181892B09F47EC08D819E81FC0146
:104E400084819581892B09F476C08D819E81FC0136
:104E5000808191819A83898389819A81FC018081F3
:104E6000082E000C990B0E94E130892B31F08981CA
:104E70009A8101969A838983EFCF8D819E81FC016F
:104E8000208131818D819E81FC01848195810197F2
:104E9000820F931F9C838B838B819C81FC0180817B
:104EA000082E000C990B0E94E130892B69F02B81B0
:104EB0003C8189819A812817390730F08B819C8148
:104EC00001979C838B83E8CF8B819C8101969C0109
:104ED00089819A81A901481B590BCA019C018D81C6
:104EE0009E81FC01358324838D819E81FC0180811C
:104EF000918129813A818217930778F48D819E816F
:104F0000FC01448155818D819E81FC0180819181CC
:104F100029813A81B9010E94C1358D819E81FC01B0
:104F2000208131818D819E81FC0184819581820F58
:104F3000931FFC01108226960FB6F894DEBF0FBEB9
:104F4000CDBFDF91CF910895CF93DF9300D0CDB740
:104F5000DEB79A83898389819A81FC01808191815E
:104F6000892B51F089819A81FC01808191810E9475
:104F70008C2CDC01CB0103C080E090E0DC01BC01A3
:104F8000CD010F900F90DF91CF910895CF93DF93D4
:104F900000D0CDB7DEB79A83898389819A810E9438
:104FA000DA27DC01CB01BC01CD010F900F90DF911E
:104FB000CF910895CF93DF9300D0CDB7DEB79A831A
:104FC000898389819A81FC0180819181892B51F0AB
:104FD00089819A81FC01808191810E94882CDC0169
:104FE000CB0103C080E090E0DC01BC01CD010F905B
:104FF0000F90DF91CF910895CF93DF93CDB7DEB7B8
:105000000E94AC35CF93DF93CDB7DEB70E94FC276B
:10501000CF93DF93CDB7DEB70E94FC27CF93DF930A
:1050200000D0CDB7DEB79A83898380E090E00F90FF
:105030000F90DF91CF910895CF93DF93CDB7DEB777
:10504000DF91CF910895CF93DF93CDB7DEB7DF9196
:10505000CF910895CF93DF93CDB7DEB70E94BE29DD
:105060000E941C280E948C010E94A7010E9403023A
:10507000FBCF1F920F920FB60F9211248F939F9325
:10508000AF93BF93CF93DF93CDB7DEB72597DEBF46
:10509000CDBF8091D5029091D602A091D702B09158
:1050A000D80289839A83AB83BC838091D9028D8394
:1050B00089819A81AB81BC810196A11DB11D898333
:1050C0009A83AB83BC838D818D5F8D838D818D377A
:1050D00070F08D818D578D8389819A81AB81BC81E0
:1050E0000196A11DB11D89839A83AB83BC838D81F9
:1050F0008093D90289819A81AB81BC818093D5024A
:105100009093D602A093D702B093D8028091D10297
:105110009091D202A091D302B091D4020196A11D28
:10512000B11D8093D1029093D202A093D302B09389
:10513000D4020F900F900F900F900F90DF91CF91AE
:10514000BF91AF919F918F910F900FBE0F901F90C5
:105150001895CF93DF9300D000D01F92CDB7DEB764
:105160008FE590E0FC0180818983F8948091D502DD
:105170009091D602A091D702B091D8028A839B83E6
:10518000AC83BD838FE590E02981FC0120838A8177
:105190009B81AC81BD81BC01CD010F900F900F9020
:1051A0000F900F90DF91CF910895CF93DF9300D0B0
:1051B00000D000D0CDB7DEB78FE590E0FC01808154
:1051C0008D83F8948091D1029091D202A091D30264
:1051D000B091D40289839A83AB83BC8386E490E048
:1051E000FC0180818E8385E390E0FC018081882F23
:1051F00090E081709927892B71F08E818F3F59F053
:1052000089819A81AB81BC810196A11DB11D8983E1
:105210009A83AB83BC838FE590E02D81FC012083D2
:1052200089819A81AB81BC812227382F492F5A2F3F
:105230008E81882F90E0A0E0B0E0820F931FA41F22
:10524000B51F880F991FAA1FBB1F880F991FAA1F80
:10525000BB1FBC01CD0126960FB6F894DEBF0FBE72
:10526000CDBFDF91CF910895EF92FF920F931F93DF
:10527000CF93DF93CDB7DEB728970FB6F894DEBF94
:105280000FBECDBF6D837E838F8398870E94D52804
:10529000DC01CB0189839A83AB83BC8337C00E9436
:1052A000632C17C08D819E81AF81B8850197A109BC
:1052B000B1098D839E83AF83B88789819A81AB8141
:1052C000BC8188519C4FAF4FBF4F89839A83AB837A
:1052D000BC838D819E81AF81B885892B8A2B8B2BD6
:1052E000A9F00E94D5289B01AC0189819A81AB81EC
:1052F000BC8179018A01E81AF90A0A0B1B0BD80153
:10530000C701883E9340A105B10560F68D819E815D
:10531000AF81B885892B8A2B8B2B09F628960FB67F
:10532000F894DEBF0FBECDBFDF91CF911F910F91DB
:10533000FF90EF900895CF93DF9300D0CDB7DEB705
:105340009A83898389819A81029798F089819A81C9
:10535000880F991F880F991F9A83898389819A8161
:1053600005979A83898389819A810197F1F79A83B6
:1053700089830F900F90DF91CF910895CF93DF93A2
:10538000CDB7DEB7789484E490E0FC01208184E41A
:1053900090E02260FC01208384E490E0FC01208105
:1053A00084E490E02160FC01208385E490E0FC012E
:1053B000208185E490E02260FC01208385E490E078
:1053C000FC01208185E490E02160FC0120838EE6D1
:1053D00090E0FC0120818EE690E02160FC012083BA
:1053E00081E890E0FC01108281E890E0FC012081DE
:1053F00081E890E02260FC01208381E890E0FC01DC
:10540000208181E890E02160FC01208380E890E029
:10541000FC01208180E890E02160FC01208381EB89
:1054200090E0FC01208181EB90E02460FC0120836E
:1054300080EB90E0FC01208180EB90E02160FC019A
:1054400020838AE790E0FC0120818AE790E02460D5
:10545000FC0120838AE790E0FC0120818AE790E04C
:105460002260FC0120838AE790E0FC0120818AE72A
:1054700090E02160FC0120838AE790E0FC0120811C
:105480008AE790E02068FC01208381EC90E0FC0139
:105490001082DF91CF910895CF93DF93CDB7DEB720
:1054A00069970FB6F894DEBF0FBECDBF888F698FA6
:1054B000888D882F90E081539E4F9A8389838981BC
:1054C0009A81FC0184918B838B818C83888D882FBA
:1054D00090E085549E4F9E838D838D819E81FC013B
:1054E00084918F838F8188878885882309F494C06D
:1054F0008885882F90E0880F991F83569E4F9A8742
:10550000898789859A85FC0125913491CF013C8753
:105510002B879A8789878B859C859E878D87888531
:10552000882F90E0880F991F89559E4F988B8F8701
:105530008F859889FC0125913491CF013A8B298B75
:10554000988B8F8789899A899C8B8B8B898D8823EF
:1055500031F58FE590E0FC0180818F8BF8948D858B
:105560009E85FC018081982F8C8180958923282F2E
:105570008D859E85FC0120838B899C89FC0180811F
:10558000982F8C8180958923282F8B899C89FC01F9
:1055900020838FE590E02F89FC0120833DC0898D19
:1055A000823021F58FE590E0FC0180818E8BF894AC
:1055B0008D859E85FC018081982F8C818095892323
:1055C000282F8D859E85FC0120838B899C89FC0179
:1055D00090818C81292F282B8B899C89FC01208329
:1055E0008FE590E02E89FC01208316C08FE590E0C6
:1055F000FC0180818D8BF8948D859E85FC019081C6
:105600008C81292F282B8D859E85FC0120838FE599
:1056100090E02D89FC01208369960FB6F894DEBFD7
:105620000FBECDBFDF91CF910895CF93DF931F922F
:10563000CDB7DEB789838981882F90E083309105CB
:1056400091F08430910534F48130910501F1029795
:1056500041F144C08730910571F188309105A9F17D
:10566000049759F03BC080E890E0FC01208180E87D
:1056700090E02F77FC01208331C080E890E0FC01AE
:10568000208180E890E02F7DFC01208327C084E406
:1056900090E0FC01208184E490E02F77FC012083DE
:1056A0001DC084E490E0FC01208184E490E02F7D23
:1056B000FC01208313C080EB90E0FC01208180EB93
:1056C00090E02F77FC01208309C080EB90E0FC0183
:1056D000208180EB90E02F7DFC0120830F90DF91F3
:1056E000CF910895CF93DF93CDB7DEB765970FB60F
:1056F000F894DEBF0FBECDBF8C8B6D8B8C89882F4D
:1057000090E08D519E4F9A83898389819A81FC0113
:1057100084918B838B818C838C89882F90E081533B
:105720009E4F9E838D838D819E81FC0184918F830A
:105730008F8188878C89882F90E085549E4F9A8727
:10574000898789859A85FC0184918B878B858C87D5
:105750008C85882309F444C08C81882319F08C81BE
:105760000E94152B8C85882F90E0880F991F8955F2
:105770009E4F9E878D878D859E85FC012591349156
:10578000CF01388B2F879E878D878F8598899A8B3D
:10579000898B8FE590E0FC0180818B8BF8948D895B
:1057A000882371F489899A89FC018081982F8885E2
:1057B00080958923282F89899A89FC0120830BC031
:1057C00089899A89FC0190818885292F282B8989CC
:1057D0009A89FC0120838FE590E02B89FC012083CE
:1057E00065960FB6F894DEBF0FBECDBFDF91CF91A7
:1057F0000895CF93DF93CDB7DEB761970FB6F894D6
:10580000DEBF0FBECDBF898B8989882F90E08D5177
:105810009E4F9A83898389819A81FC0184918B832D
:105820008B818C838989882F90E081539E4F9E8342
:105830008D838D819E81FC0184918F838F818887E8
:105840008989882F90E085549E4F9A87898789851A
:105850009A85FC0184918B878B858C878C85882326
:1058600019F480E090E026C08C81882319F08C81A7
:105870000E94152B8C85882F90E0880F991F8F54DC
:105880009E4F9E878D878D859E85FC012591349145
:10589000CF01388B2F879E878D878F859889FC0154
:1058A000908188858923882319F081E090E002C0E7
:1058B00080E090E061960FB6F894DEBF0FBECDBFDA
:1058C000DF91CF910895CF93DF93CDB7DEB7DF910E
:1058D000CF910895EF920F931F93CF93DF93E80139
:1058E00034E047FD34E1042E000C550B57FF03C094
:1058F000519541955109E32E022F242FAE010E94AC
:105900005A2DCE01DF91CF911F910F91EF90089505
:10591000662777270C94B92E1F93FC0199278827B7
:10592000BC01E89411911032E9F3193010F01E30E7
:10593000C8F31B3251F01D3249F4689406C00E942E
:10594000F32C610F711D811D911D119110531A309F
:10595000B0F33EF490958095709561957F4F8F4F91
:105960009F4F1F910895FB01DC0105900D920020CF
:10597000E1F70895FC0105900020E9F780959095E6
:105980008E0F9F1F08954532510520F4423010F0CC
:105990000C94CE2CFB011082CB010895BB274A301A
:1059A00031F4992322F4BDE2909581959F4F0C9498
:1059B000412D2532310520F4223010F00C94E42CD6
:1059C000FA011082CA010895BB272A3051F49923A5
:1059D00042F4BDE290958095709561957F4F8F4F11
:1059E0009F4F0C94142D592F482F372F262F660FB9
:1059F000771F881F991F660F771F881F991F620FD7
:105A0000731F841F951F660F771F881F991F0895A6
:105A10002532310520F4223010F00C94132DFA01B8
:105A20001082CA010895BB27FA01A62F62177105DB
:105A300081059105330B30FB66F0AA27660F771FAF
:105A4000881F991FAA1FA21710F0A21B6395385038
:105A5000A9F7A05DAA3308F0A95DA19336F7B111AB
:105A6000B1931082CA010C9402314532510520F4E1
:105A7000423010F00C94402DFB011082CB010895B0
:105A8000BB27FB015527AA27880F991FAA1FA41718
:105A900010F0A41B83955051B9F7A05DAA3308F00C
:105AA000A95DA193009779F7B111B1931192CB0140
:105AB0000C940231A9E0B0E0E0E6FDE20C944A3239
:105AC0006A01F22EB02E102FFBE3AF2EA01608F4C1
:105AD0001BE31F5F012F27E0AE014F5F5F4F0E9466
